:100000000C9418180C9442180C9442180C94421832
:100010000C9442180C9442180C9442180C944218F8
:100020000C9442180C94BAC30C9442180C944218C5
:100030000C9442180C94DF3C0C9442180C94421817
:100040000C9442180C94D22B0C9430C70C94421888
:100050000C941FB90C9442180C9442180C9442183A
:100060000C9442180C9442180C9442180C944218A8
:100070000C9442180C9442180C9442180C94421898
:100080000C94F43D0C9442180C9442184E414E4985
:100090004E495459494E46CDCCCC3D0AD7233C1746
:1000A000B7D13877CC2B329595E6241FB14F0A0093
:1000B0000020410000C84200401C4620BCBE4CCA83
:1000C0001B0E5AAEC59D74454550524F4D2064617C
:1000D000746173697A65206572726F722E0A0029E5
:1000E0000A002062797465733B20637263200053B9
:1000F000657474696E67732053746F726564202829
:1001000000290A002062797465733B2063726320C2
:10011000002073746F7265642073657474696E6710
:1001200073207265747269657665642028002028E2
:1001300063616C63756C6174656429210A00202118
:100140003D2000454550524F4D20435243206D699C
:10015000736D61746368202D202873746F726564F9
:100160002920002053697A653A2000496E64657839
:100170003A2000204D61726C696E3D563536290A71
:100180000028454550524F4D3D00454550524F4D7A
:100190002076657273696F6E206D69736D6174632B
:1001A00068200048617264636F646564204465661A
:1001B00061756C742053657474696E6773204C6F3D
:1001C000616465640A00F4010000F4010000640049
:1001D0000000881300000000FA430000FA4300000A
:1001E000A0400000C8410000A0420000A042000062
:1001F000C8430000BA423A0A0020286D6D29002049
:10020000204D383531205A005A2D50726F626520CA
:100210004F66667365740020440020490020204D1D
:100220003330312050005049442073657474696E36
:1002300067733A0A00204600204200204800202030
:100240004D3134352053004D6174657269616C2005
:1002500068656174757020706172616D6574657236
:10026000733A0A00205A00204A00202047323920E1
:1002700057204900205A0020204D343230205300AE
:100280004175746F20426564204C6576656C696EBB
:10029000673A0A00205A0020590020204D3230369B
:1002A000205800486F6D65206F66667365743A0A62
:1002B00000204500205A00205900205800205400FA
:1002C00020530020204D32303520510020453C6D18
:1002D00061785F655F6A65726B3E0020583C6D61B6
:1002E000785F785F6A65726B3E20593C6D61785F1C
:1002F000795F6A65726B3E205A3C6D61785F7A5F08
:100300006A65726B3E00416476616E6365643A2093
:10031000513C6D696E5F7365676D656E745F74697E
:100320006D655F75733E20533C6D696E5F666565F4
:1003300064726174653E20543C6D696E5F747261D5
:1003400076656C5F66656564726174653E00205415
:100350000020520020204D32303420500041636391
:10036000656C65726174696F6E2028756E6974734F
:100370002F7332293A20503C7072696E745F61634A
:1003800063656C3E20523C726574726163745F6198
:100390006363656C3E20543C74726176656C5F618A
:1003A0006363656C3E0A00204500205A0020590016
:1003B00020204D3230312058004D6178696D756DC7
:1003C00020416363656C65726174696F6E20287586
:1003D0006E6974732F7332293A0A00204500205A3F
:1003E0000020590020204D3230332058004D6178D4
:1003F000696D756D2066656564726174657320282A
:10040000756E6974732F73293A0A00204500205ACB
:100410000020590020204D39322058005374657057
:10042000732070657220756E69743A0A0020204D41
:100430003230302044300A0020204D323030204409
:10044000002044697361626C65640A0046696C61EE
:100450006D656E742073657474696E67733A0020FD
:10046000204D3134392043203B20556E6974732070
:10047000696E2043656C736975730A0020204732EA
:1004800031202020203B00486F6D696E6720666137
:10049000696C656400545249474745524544006FB2
:1004A00070656E003A20007A5F6D696E00795F6D4D
:1004B000696E00785F6D696E005265706F72746965
:1004C0006E6720656E6473746F70207374617475E9
:1004D000730A0020746F6F206C6F6E6720657874EC
:1004E000727573696F6E2070726576656E7465647F
:1004F0000A0020636F6C6420657874727573696F8D
:100500006E2070726576656E7465640A0024F4D49A
:100510003050C38E20C2A24017828B7011127A9184
:100520000D816CD90AA861E108C75866076151437B
:10053000061E4B5D05C145A7041A411104093D98EB
:1005400003713931034036DB0265339102D43054F4
:1005500002802E1D02632CEE01752AC501B028A071
:1005600001102781018F2564012B244B01E02234E7
:1005700001AC211F018D200D01801FFC00841EEDA8
:1005800000971DDF00B81CD200E61BC600201BBC74
:1005900000641AB200B219A8000A19A0006A1899DA
:1005A00000D117910040178B00B516840031167EDC
:1005B00000B31579003A157300C7146F0058146A18
:1005C00000EE1366008813630025135E00C7125BFC
:1005D000006C12570015125400C111510070114FD8
:1005E0000021114B00D61049008D104700461044E1
:1005F0000002104200C00F4000800F3E00420F3C3E
:1006000000060F3B00CB0E3800930E37005C0E3512
:1006100000270E3400F30D3200C10D3100900D3073
:1006200000600D2E00320D2D00050D2C00D90C2B75
:1006300000AE0C2900850C29005C0C2700350C2726
:10064000000E0C2600E80B2400C40B2400A00B2392
:10065000007D0B23005A0B2100390B2100180B20C1
:1006600000F80A1F00D90A1E00BB0A1E009D0A1DC1
:1006700000800A1D00630A1C00470A1B002C0A1B8D
:1006800000110A1A00F7091A00DD091900C4091936
:1006900000AB091900920917007B091800630917BC
:1006A000004C09160036091600200916000A091523
:1006B00000F5081500E0081400CC081400B8081470
:1006C00000A4081400900813007D0812006B0813A2
:1006D00000580812004608120034081100230811BF
:1006E000001208110001081100F0071000E00710C7
:1006F00000D0071000C0071000B0070F00A10710BE
:100700000091070E0083070F0074070F0065070EA6
:100710000057070E0049070E003B070D002E070E7D
:100720000020070D0013070D0006070D00F9060C49
:1007300000ED060D00E0060C00D4060C00C8060C07
:1007400000BC060C00B0060C00A4060B0099060CB9
:10075000008D060B0082060B0077060B006C060B63
:100760000061060A0057060B004C060A0042060A02
:100770000038060A002E060A0024060A001A060A95
:10078000001006090007060A00FD050900F4050926
:1007900000EB050900E2050900D9050900D00509AB
:1007A00000C7050900BE050900B5050800AD05082C
:1007B00000A50509009C050800940508008C0508A3
:1007C00000840508007C050800740508006C050716
:1007D00000650508005D050700560508004E050781
:1007E00000470507004005080038050700310507E8
:1007F000002A050700230507001C0506001605074B
:10080000000F0507000805060002050700FB0406A7
:1008100000F5040700EE040600E8040600E2040701
:1008200000DB040600D5040600CF040600C9040658
:1008300000C3040600BD040600B7040600B10405A9
:1008400000AC040600A6040600A00405009B0406F4
:100850000095040500900406008A0405008504053F
:1008600000800406007A0405007504050070040584
:10087000006B04050066040500610405005C0405C6
:100880000057040500520405004D04050048040506
:1008900000430405003E0404003A04050035040545
:1008A00000300404002C0405002704040023040580
:1008B000001E0404001A04040016040500110404B8
:1008C000000D0404000904050004040400000404ED
:1008D00000FC030400F8030400F4030400F0030424
:1008E00000EC030400E8030400E4030400E0030454
:1008F00000DC030400D8030400D4030400D0030484
:1009000000CC030400C8030300C503030024F4045F
:10091000D9201BC40C5C0E9804C4095F02650771E2
:1009200001F405F900FB04B30048048700C1036922
:10093000005803550003034500BE023A008402310B
:100940000053022A002902250004022000E4011CB1
:1009500000C8011900AF01170098011400840113A9
:1009600000710110006101100051010E0043010DE2
:100970000036010B002B010B0020010B00150109B3
:10098000000C01090003010800FB000800F3000847
:1009900000EB000700E4000600DE000600D80006B9
:1009A00000D2000600CC000500C7000500C200050B
:1009B00000BD000400B9000400B5000400B100044B
:1009C00000AD000400A9000400A5000300A200037C
:1009D000009F0004009B00030098000300950002A4
:1009E0000093000300900003008D0002008B0003C1
:1009F00000880002008600020084000300810002DB
:100A0000007F0002007D0002007B000200790002EE
:100A100000770001007600020074000200720001FD
:100A200000710002006F0002006D0001006C000206
:100A3000006A000100690002006700010066000111
:100A40000065000100640002006200010061000115
:100A500000600001005F0002005D0001005C000119
:100A6000005B0001005A000100590001005800011C
:100A7000005700010056000100550001005400011C
:100A8000005300000053000100520001005100011A
:100A900000500001004F0001004E0000004E000118
:100AA000004D0001004C0001004B0000004B000114
:100AB000004A000100490001004800000048000110
:100AC000004700010046000000460001004500000C
:100AD0000045000100440001004300000043000104
:100AE00000420000004200010041000000410001FE
:100AF00000400001003F0000003F0001003E0000F8
:100B0000003E0001003D0000003D0001003C0000EF
:100B1000003C0000003C0001003B0000003B0001E5
:100B2000003A0000003A00010039000000390001DD
:100B300000380000003800000038000100370000D5
:100B400000370001003600000036000000360001CA
:100B500000350000003500000035000100340000C1
:100B600000340000003400010033000000330000B6
:100B700000330001003200000032000000320001AA
:100B800000310000003100000031000100300000A1
:100B90000030000000300001002F0000002F000096
:100BA000002F0000002F0001002E0000002E00008A
:100BB000002E0001002D0000002D0000002D00007F
:100BC000002D0001002C0000002C0000002C000073
:100BD000002C0001002B0000002B0000002B000067
:100BE000002B0001002A0000002A0000002A00005B
:100BF000002A00010029000000290000002900004F
:100C00000029000000290001002800000028000041
:100C10000028000000280000002800010027000034
:100C20000027000000270000002700000027000127
:100C3000002600000026000000260000002600001C
:100C4000002600010025000000250000002500000E
:100C50000025000000250000002500010024000000
:100C600000240000002400000024000000240001F3
:100C700000230000002300000023000000230000E8
:100C800000230000002300000023000100220000D8
:100C900000220000002200000022000000220000CC
:100CA00000220001002100000021000000210000BE
:100CB00000210000002100000021000000210001AF
:100CC00000200000002000000020000000200000A4
:100CD0000020000000200000002000000020000193
:100CE000001F0000001F0000001F0000001F000088
:100CF000001F0000001F0000001F0001001E000078
:100D0000001E0000001E0000001E0000000437004E
:100D1000001E290000511B0000581000001009009F
:100D200000CC04000078020000410100006265640C
:100D30000A002C2073797374656D2073746F707062
:100D4000656421204865617465725F49443A2000FA
:100D50004265642068656174696E67206661696CCC
:100D600065640048656174696E67206661696C65D9
:100D7000640045312048656174696E672066616969
:100D80006C65640048656174696E67206661696CB2
:100D900065640070012C0190012701B0012201C09F
:100DA000011D01F00118011002130130020E016053
:100DB00002090190020401C002FF000003FA004092
:100DC00003F5008003F000D003EB002004E6007080
:100DD00004E100E004DC004005D700C005D200407B
:100DE00006CD00D006C8008007C3003008BE00F062
:100DF00008B900C009B400B00AAF00B00BAA00D017
:100E00000CA500000EA000500F9B00C010960050D3
:100E100012910000148C00C0158700B0178200B03A
:100E2000197D00D01B7800001E730040206E0090DA
:100E3000226900F024640040275F0090295A00E0F6
:100E40002B5500102E500020304B0010324600E091
:100E500033410090353C001037370070383200A025
:100E6000392D00B03A2800A03B2300603C1E001042
:100E70003D1900903D1400103E0F00703E0A00C066
:100E80003E0500003F0000403FFBFF803FF6FFC0F3
:100E90003FF1FF453120544845524D414C205255B9
:100EA0004E415741590042454420544845524D4116
:100EB0004C2052554E4157415900546865726D613E
:100EC0006C2052756E6177617900453120457272F0
:100ED0003A204D415854454D50004572723A204DCC
:100EE000415854454D5020424544004D41585445C9
:100EF0004D502074726967676572656400453120E2
:100F00004572723A204D494E54454D50004572721B
:100F10003A204D494E54454D5020424544004D49DC
:100F20004E54454D50207472696767657265640060
:100F30004D383420582059205A204500202F0020B9
:100F400042403A0020403A0025753A25303275007B
:100F5000253032753A2530327500257564202530EC
:100F600032753A2530327500202020202020005A8A
:100F70000059002020202000580009200000000017
:100F8000000000000000000000003FFFF000000033
:100F900000000000000000000000380070000000A9
:100FA0000000000000000000000030FC30000000E5
:100FB0000000000000000000000020FC1000000005
:100FC0000000000000000000000020781000000079
:100FD00000000000000000000000203010000000B1
:100FE000000000000000000000002C00D0F801808C
:100FF000000C1FE00000082080002E31D048008047
:1010000000123FF00000041040002F7BD043C38C3F
:10101000D0023FF00000041040002F7BD0712492DA
:1010200067CC3FF00000082080002E31D041249E84
:1010300040021FE00000104100002C00D049249025
:1010400040121FE0000020820000203010FBB3CED1
:10105000E00C3FF00000208200002078100000002B
:1010600000003FF000001041000020FC10000000D4
:1010700000003FF000000820800030FC300000003D
:1010800000000FC0000000000000380070000000E9
:10109000000007800000FFFFC0003FFFF0000000DD
:1010A000000003000000FFFFC0000000000000007F
:1010B000000000000000000000003FFFF000000002
:1010C0000000000000000000000038007000000078
:1010D0000000000000000000000033873000000026
:1010E00000000000000000000000278790000000C2
:1010F000000000000000000000002F87D00000006A
:10110000000000000000000000002F87D000000059
:10111000000000000000000000002F03D0F8018054
:10112000000C1FE0000008208000203010480080E4
:1011300000123FF000000410400020781043C38CE0
:10114000D0023FF00000041040002078107124927B
:1011500067CC3FF000000820800020301041249E22
:1011600040021FE00000104100002F03D0492490EE
:1011700040121FE00000208200002F87D0FBB3CE7A
:10118000E00C3FF00000208200002F87D00000001C
:1011900000003FF000001041000027879000000091
:1011A00000003FF00000082080003387300000007E
:1011B00000000FC0000000000000380070000000B8
:1011C000000007800000FFFFC0003FFFF0000000AC
:1011D000000003000000FFFFC000000000456E6437
:1011E00065722D332052656164792E005072696EEC
:1011F00074696E672E2E2E005072696E74207061B5
:101200007573656400436D643A2053746F770043CF
:101210006D643A204465706C6F7900436D643A20C8
:1012200053656C662D5465737400436D643A2053A6
:10123000572D4D6F646500436D643A2052657365A8
:1012400074004D61696E005072696E742061626F46
:101250007274656400496E69742E20534420636182
:101260007264004D3231004E6F205344206361722E
:1012700064004368616E6765205344206361726453
:10128000004D3231005072696E742066726F6D20AD
:1012900053440053746F70207072696E740052650D
:1012A00073756D65207072696E740041626F75743C
:1012B000205072696E74657200506175736520709C
:1012C00072696E7400436F6E74726F6C0050726559
:1012D000706172650054756E6500496E666F2073AB
:1012E000637265656E000E000E000E000E000E00AB
:1012F0000E000E000E007FC03F801F000E00040095
:1013000004000E001F003F807FC00E000E000E0084
:101310000E000E000E000E000E0003F8000FFE007F
:101320001E0F00380700380380700380700FE070D4
:1013300007C070038070010070000038000038079B
:10134000001E0F000FFE0003F80000FE0003FF80E8
:101350000783C00E01C00E00E01C00E07F00E03EED
:1013600000E01C00E00800E00000E00001C00E0109
:10137000C00F078007FF0001FC00FFFFFF7F80FF19
:10138000C0FFC0FFC07F807F80FFC0FFC0FFC03FA5
:10139000001E000C0050726F6265205A204F666676
:1013A0007365740050726F6265205A204F666673D1
:1013B000657400466C6F7700466C6F770046616E0F
:1013C0002073706565640046616E207370656564A6
:1013D0000042656400426564004E6F7A7A6C650075
:1013E0004E6F7A7A6C650053706565640053706562
:1013F0006564004D61696E005072656865617420B6
:10140000504C4120456E64005072656865617420DF
:10141000504C4120426564005072656865617420DB
:10142000504C410050726570617265005072656881
:101430006561742041425320456E640050726568B6
:1014400065617420414253204265640050726568B2
:10145000656174204142530050726570617265008D
:1014600053746F72652073657474696E6773004C92
:101470006F61642073657474696E67730050726F76
:101480006265205A204F6666736574004661646524
:10149000204865696768740046616465204865692D
:1014A000676874004F6666004F6E200042656420D6
:1014B0004C6576656C696E67004C6576656C20627C
:1014C0006564004732380A473239004732390041F3
:1014D00075746F20686F6D65004732380050726513
:1014E0007061726500436D643A20526573657400E3
:1014F0004D323830205030205331363000436D6447
:101500003A2053656C662D54657374004D32383043
:10151000205030205331323000507265686561745C
:1015200020414253005072656865617420504C41FF
:1015300000436F6F6C646F776E0044697361626C17
:1015400065207374657070657273004D38340042A5
:101550006564204C6576656C696E67004175746FD3
:1015600020686F6D6500473238004D6F76652061E9
:10157000786973004D61696E004D6F766520580083
:101580004D6F76652059004D6F7665205A0045787D
:10159000747275646572004D6F766520302E316D02
:1015A0006D004D6F766520316D6D004D6F76652055
:1015B00031306D6D004D6F7665206178697300453F
:1015C00078747275646572004D6F7665205A004DAF
:1015D0006F76652059004D6F7665205800434F4D5A
:1015E0004D554E49434154494F4E0044525952556E
:1015F0004E004552524F525300494E464F0045430C
:10160000484F00656E7175657565696E67202200CB
:101610004B494C4C45442E200053544F50504544A8
:101620002E20005072696E7465722073746F707032
:1016300065642064756520746F206572726F7273C3
:101640002E2046697820746865206572726F72205A
:10165000616E6420757365204D39393920746F20AF
:10166000726573746172742E202854656D70657292
:1016700061747572652069732072657365742E20BC
:101680005365742069742061667465722072657395
:1016900074617274696E67290A004E6F2043686531
:1016A000636B73756D2077697468206C696E652053
:1016B0006E756D6265722C204C617374204C696E7E
:1016C000653A20004E6F20436865636B73756D202B
:1016D00077697468206C696E65206E756D626572DD
:1016E0002C204C617374204C696E653A200063684D
:1016F00065636B73756D206D69736D617463682CC0
:10170000204C617374204C696E653A20004C696E00
:1017100065204E756D626572206973206E6F74204E
:101720004C617374204C696E65204E756D626572F4
:101730002B312C204C617374204C696E653A20006B
:101740004D313130004D33310053442072656164B6
:10175000206572726F720A00446F6E652070726944
:101760006E74696E672066696C650A0020496E7642
:10177000616C69642065787472756465722000001C
:10178000000000000000000000000000006B4300AB
:10179000006B4300007A4342696C696E6561722098
:1017A0004C6576656C696E6720477269643A0A0019
:1017B000202844525952554E29004732392041754C
:1017C000746F20426564204C6576656C696E6700B5
:1017D0003F20284C2C522C462C4229206F75742017
:1017E0006F6620626F756E64732E0A003F2856295B
:1017F0006572626F7365206C6576656C2069732015
:10180000696D706C61757369626C652028302D3468
:10181000292E0A00426164205A2076616C75650A9F
:10182000004E6F2062696C696E6561722067726933
:10183000640A0050726F7465637465642050696E49
:101840000A0020573A004520436F6F6C696E672E7F
:101850002E2E00452048656174696E672E2E2E007D
:1018600020573A0042656420636F6F6C696E672E83
:101870002E2E004265642068656174696E672E2EA5
:101880002E00205A3A0020593A0020436F756E749A
:1018900020583A0020453A00205A3A0020593A0090
:1018A000583A003A004361703A00205A002059002B
:1018B000580020204D61783A2000205A002059001D
:1018C000580020204D696E3A20004F6E20004F6670
:1018D0006600536F667420656E6473746F70733A3C
:1018E000200023646566696E652044454641554C79
:1018F000545F4B64200023646566696E652044452F
:101900004641554C545F4B69200023646566696EFF
:10191000652044454641554C545F4B70200050496A
:1019200044204175746F74756E652066696E6973C5
:10193000686564212050757420746865206C61733B
:1019400074204B702C204B6920616E64204B642006
:10195000636F6E7374616E74732066726F6D206254
:10196000656C6F7720696E746F20436F6E66696770
:1019700075726174696F6E2E680A00504944204187
:1019800075746F74756E65206661696C656421207D
:1019900074696D656F75740A00453120544845526D
:1019A0004D414C2052554E41574159005468657283
:1019B0006D616C2052756E61776179004531204808
:1019C000656174696E67206661696C65640048656D
:1019D0006174696E67206661696C65640050494492
:1019E000204175746F74756E65206661696C6564FD
:1019F000212054656D706572617475726520746F15
:101A00006F20686967680A00204B643A2000204B09
:101A1000693A2000204B703A20000A20436C617321
:101A200073696320504944200A002054753A20000D
:101A3000204B753A2000206D61783A2000206D69B6
:101A40006E3A200020643A200020626961733A20D7
:101A500000504944204175746F74756E652073742D
:101A60006172740A00504944204175746F74756E38
:101A700065206661696C6564212054656D706572CE
:101A8000617475726520746F6F20686967680A00F9
:101A9000504944204175746F74756E6520666169A4
:101AA0006C65642120426164206578747275646598
:101AB00072206E756D6265720A004F66660A004696
:101AC0006164652048656967687420004265642028
:101AD0004C6576656C696E6720004661696C65646B
:101AE00020746F20656E61626C6520426564204CD5
:101AF0006576656C696E670A004F66667365747318
:101B0000206170706C696564004572723A20546F90
:101B10006F206661722100546F6F206661722066CB
:101B2000726F6D207265666572656E636520706F99
:101B3000696E740A00536C6565702E2E2E00486F16
:101B40006D652058592066697273740A00486F6D7C
:101B50006520585920666972737400205A3A200033
:101B600020593A200042656420583A20004D6573A0
:101B70006820706F696E742063616E6E6F7420628E
:101B800065207265736F6C7665640A00436C6963E7
:101B90006B20746F20726573756D652E2E2E004E4E
:101BA0006F206D6F76652E00456E642066696C65EA
:101BB000206C6973740A00426567696E2066696CFF
:101BC00065206C6973740A00286E6F2066696C6505
:101BD000290043757272656E742066696C653A20DF
:101BE000005344207072696E74696E672062797464
:101BF0006520004E6F74205344207072696E7469C2
:101C00006E670A0044656C6574696F6E2066616971
:101C10006C65642C2046696C653A200046696C65E9
:101C20002064656C657465643A00256973002569F4
:101C30006D20256973002569682025696D20256957
:101C40007300256964202569682025696D20256950
:101C50007300256979202569642025696820256934
:101C60006D20256973005072696E742074696D650A
:101C70003A20006F666600FE15F915F215EB15DDCA
:101C80001544454255473A004B494C4C45442E209B
:101C9000004D3131332053006F6B00456E64657227
:101CA0002D33204F66662E002C20002C2000544837
:101CB00045524D414C5F50524F54454354494F4E4D
:101CC000004155544F5245504F52545F53445F5357
:101CD000544154555300454D455247454E43595F75
:101CE00050415253455200434153455F4C49474888
:101CF000545F4252494748544E45535300544F474E
:101D0000474C455F4C494748545300534F4654573E
:101D10004152455F504F574552004255494C445F30
:101D200050455243454E54004C4556454C494E474C
:101D30005F44415441005A5F50524F424500415563
:101D4000544F4C4556454C005052494E545F4A4FF3
:101D5000420050524F4752455353004155544F5241
:101D600045504F52545F54454D5000564F4C554DC1
:101D7000455452494300454550524F4D005345523A
:101D800049414C5F584F4E5F584F464600464952B6
:101D90004D574152455F4E414D453A4D61726C6918
:101DA0006E206275676669782D312E312E78202875
:101DB0004769746875622920534F555243455F4304
:101DC0004F44455F55524C3A68747470733A2F2FE4
:101DD0006769746875622E636F6D2F4D61726C69EF
:101DE0006E4669726D776172652F4D61726C696EB6
:101DF0002050524F544F434F4C5F56455253494F1A
:101E00004E3A312E30204D414348494E455F54599A
:101E100050453A456E6465722D33204558545255ED
:101E20004445525F434F554E543A3120555549442D
:101E30003A63656465326132662D343161322D3426
:101E40003734382D396231322D6335356336326699
:101E500033363766660A002F2F20004D3134352087
:101E6000533C696E6465783E206F7574206F662000
:101E700072616E67652028302D31290A00205400D8
:101E8000205200416363656C65726174696F6E3ADC
:101E90002050005741524E494E4721204C6F772029
:101EA0005A204A65726B206D6179206C65616420EF
:101EB000746F20756E77616E7465642070617573E0
:101EC00065732E0A0020466C6F773A200000010FE0
:101ED000150E12FFFFFFFF16170E13FFFFFFFF0384
:101EE000021A14FFFFFFFFFFFFFF0C04FFFFFF01BB
:101EF000000EFFFFFF0C190DFF183A20002053655C
:101F000072766F2000206F7574206F662072616E8C
:101F100067650A00536572766F200050726F6265C4
:101F2000205A204F66667365743A2000496E7661C8
:101F30006C69642065787472756465720A00206447
:101F40003A0020693A0020703A0043290A00616291
:101F50006C656420286D696E2074656D7020004387
:101F60006F6C642065787472756465732061726546
:101F700020004E6F2063617365206C696768740A86
:101F8000004D65736820706F696E742063616E6EBA
:101F90006F74206265207265736F6C7665640A00E9
:101FA0004D34323120696E636F72726563742070D4
:101FB0006172616D657465722075736167650A0091
:101FC000454550524F4D204F4B0A003F5A206F75E8
:101FD00074206F662072616E676520282D32302074
:101FE000746F203230290A003A200050726F626507
:101FF000205A204F66667365740041637469766584
:102000002045787472756465723A2000496E766175
:102010006C69642065787472756465720A00526533
:1020200073656E643A20006F6B0020746F6F206CD4
:102030006F6E6720657874727573696F6E20707249
:102040006576656E7465640A0020636F6C64206554
:102050007874727573696F6E2070726576656E74D0
:1020600065640A00627573793A20706175736564FE
:1020700020666F7220696E7075740A0062757379DC
:102080003A2070617573656420666F7220757365A0
:10209000720A00627573793A2070726F63657373A8
:1020A000696E670A004B494C4C45442E20004B4951
:1020B0004C4C2063617573656420627920746F6F86
:1020C000206D75636820696E61637469766520743C
:1020D000696D65202D2063757272656E7420636F63
:1020E0006D6D616E643A2000506C6561736520729D
:1020F00065736574005052494E5445522048414C16
:10210000544544005072696E7465722068616C7445
:1021100065642E206B696C6C28292063616C6C658A
:1021200064210A0000000000000000000000000020
:102130000000A0410000A04100008040000000001D
:102140005761726E696E673A20486F6D696E6720DD
:1021500042756D702044697669736F72203C20313E
:102160000A000202040000A0400000A0400000009D
:102170004000006B4300006B4300007A43FFFFFF09
:102180007C3C3E5E2B3D3F2F5B5D3B2C2A225C005E
:102190004572726F722077726974696E6720746F0E
:1021A00020454550524F4D210A00457874727564A0
:1021B0006572004D6F7665205A004D6F7665205927
:1021C000004D6F7665205800507265706172650031
:1021D0004C6F61642073657474696E677300526537
:1021E00073746F7265206661696C73616665005314
:1021F000746F72652073657474696E677300424C06
:10220000546F7563680046696C616D656E74004D4E
:102210006F74696F6E0054656D706572617475726C
:1022200065004D61696E004D3330332055312045D6
:1022300025692053256900504944204175746F7405
:10224000756E6500504944204175746F74756E65F4
:10225000005049442D44005049442D440050494405
:102260002D49005049442D49005049442D500050FB
:1022700049442D5000200820466163740020082046
:1022800046616374002008204D6178002008204DCD
:102290006178002008204D696E002008204D696E8D
:1022A000004F6666004F6E20004175746F74656D57
:1022B000700046616E2073706565640046616E2033
:1022C00073706565640042656400426564004E6F2A
:1022D0007A7A6C65004E6F7A7A6C6500436F6E7423
:1022E000726F6C0050726F6265205A204F66667381
:1022F000657400436F6E74726F6C0046696C2E20BB
:102300004469612E0046696C2E204469612E004F9D
:102310006666004F6E20004520696E206D6D3300AB
:10232000436F6E74726F6C0043616E6E6F742065E4
:102330006E746572207375626469723A2000022EB1
:102340002E000152656672657368004D61696E000A
:102350004D61782054656D703A20313235004D69F9
:102360006E2054656D703A203500544265643A45DC
:1023700050434F53203130304B004D61782054652D
:102380006D703A20323735004D696E2054656D709E
:102390003A20350054303A204550434F53203130D5
:1023A000304B005053553A2047656E6572696300A3
:1023B00050726F746F636F6C3A20312E300042613F
:1023C00075643A20313135323030004D656C7A69B0
:1023D0002028437265616C697479290042696C69CF
:1023E0006E656172204C6576656C696E6700457834
:1023F000747275646572733A203100687474703A4F
:102400002F2F6D61726C696E66772E6F7267004553
:102410006E6465722D3300323031382D30372D33F4
:1024200031006275676669782D312E312E78004D46
:1024300061726C696E00546865726D6973746F7255
:102440007300426F61726420496E666F005072695A
:102450006E74657220496E666F004D61696E000092
:10246000002100240027002A000000220025002867
:10247000002B000000200023002600290002020299
:102480000202020202040404040404040403030319
:10249000030303030301010101010101010102041E
:1024A000081020408001020408102040800102042E
:1024B0000810204080804020100804020100000025
:1024C000010200090A0000000004030807000000E0
:1024D0000000000000000000000000000002FFFFFC
:1024E000FFFFEFFFFFFFFFFFFFFFFFFFFFEFEFFF2C
:1024F000FFFFFFFFFFFFFFFFE7DFFFFFFFFFFFFF24
:10250000FFFFFFE7DFFFFFFFFFFFFFFFFFFFE3DF4F
:10251000FFFFFFFFFFFFFFFFFFF3CFFFFFFFFFFF07
:10252000FFFFFFE1E1CFFFFFFFFFFFFFFE780000AD
:1025300003DDFFFFFFFFFEFF807E0001EEFFFFFFD8
:10254000FFFE7DCFFC0000F77FFFFFFFFF8E060040
:1025500000007BBFFFFFFFFFC0000000007DDFFF2A
:10256000FFFFFFFC01FE00003EE7FFFFFFFFFFFF54
:10257000FC00031F73FFFFFFFFFFFFF800018F81C7
:10258000FFFFFFFFFFFFE0000083F9FFFFFFFFFFFA
:10259000FF00FC0000F0FFFFFFFFFFE00FFFC000A7
:1025A00000FFFFFFFFFE03FFFFC00000FFFFFFFF74
:1025B000FFFFFFF9000000FFFFFFFFFFFFFFFC0030
:1025C00007C0FFFFFFFFFFFFFFFF0007E0FFFFFF68
:1025D000FFFFFFFFFFE007F1FFFFFFFFFFFFFFFF30
:1025E000FC07F9FFFFFFFFFFFFFFFFFF03F9FFFFFE
:1025F000FFFFFFFFFFFFFF83F9FFFFFFFFFFFFFF6D
:10260000FFFFC3FFFFFFFFFFFFFFFFFFFFE1FFFF34
:10261000FFFFFFFFFFFFFFFFF0BFFFFFFFFFFFFF19
:10262000FFFFFBF83FFFFFFFFFFFFFFFFFF9F83F52
:10263000FFFFFFFFFFFFFFFF7EF0FFFFFFFFFFFF3A
:10264000FFFFFF8E03FFFFFFFFFFFFFFFFFFE01F06
:10265000FFFFFFFFFFFFFFFFFFFFFFFFFFFFFFFF8A
:10266000FFFFFFFFFFFFFFFFFFFFFFFFFFFFFFFF7A
:10267000FF7FFFFFFFFF00007FFFFFF87FFFFFFFEF
:10268000FF80007FFFFFE07FFFFFFFFFC3FCFFFF36
:10269000FFF8FFFFFFFFFFC3FCFFFFFFF8FFFFFF97
:1026A000FFFF87FDFFFFFFF1FFFFFFFFFF87FFFF3A
:1026B000FFFFF1FFFFFFFFFF0FE7F30FFC23FC3FDE
:1026C000FFFFFF0FEF8007F003F01E007FFE1FCF1C
:1026D0008187C787C70C007FFE001FC7C78FC79FB2
:1026E0000F0CFFFE001F878F1F8F1F0F1FFFFC3F68
:1026F0009F8F8F1F8E001E3FFFFC7F3F0F1E3F1ED0
:102700003FFE3FFFF87FFF1F1C3F1C7FFC7FFFF851
:10271000FFFF1E1C7E1C7FFC7FFFF0FFCE3E3C7E39
:102720003C7FB8FFFFF0FF9E3C387C387E78FFFF8F
:10273000E1FF3C7C787C783CF1FFFFE1F838787869
:10274000101801F1FFFF000060203C007C07807F33
:10275000FFFFFFFFFFFE1FFE1FFFFFFF1FFFFFFF2B
:10276000FFFFFF600000000001FF400000000000CC
:10277000FF8000000000007F83CF00000C303F8707
:10278000FF80000C301F867980000C000F8C30C752
:10279000838C30E78C30CFC7CC31F38C30DCECEC61
:1027A00033B98C30D86C6C33198C30D06C0C331935
:1027B0008C30D86C0C33198C30DC6C0E3B198C309F
:1027C000CF7C079F198C30C77C038F194000000015
:1027D000000002600000000000061FFFFFFFFFFF77
:1027E000F82020506C616E6E657242756666657287
:1027F00042797465733A20002046726565204D6504
:102800006D6F72793A2000436F6D70696C65643A40
:10281000204A756C20203420323032300A00207C6F
:1028200020417574686F723A2028746869736973FF
:102830006B65697468622C20456E6465722D33295E
:102840000A00323031382D30372D333100204C61C1
:10285000737420557064617465643A200062756712
:102860006669782D312E312E780A004D61726C69BF
:102870006E0020536F6674776172652052657365D0
:10288000740A00205761746368646F67205265732F
:1028900065740A002042726F776E206F7574205243
:1028A000657365740A002045787465726E616C20EA
:1028B00052657365740A00506F77657255700A002F
:1028C00073746172740A006175746F25692E6700F4
:1028D0006572726F722077726974696E6720746FA7
:1028E0002066696C650A00456E6473746F707320AE
:1028F000256320256320256320256300205A3A00A4
:1029000020593A0020583A00656E6473746F7073F2
:10291000206869743A2000446F6E6520736176699F
:102920006E672066696C652E0A004D3239004D32A3
:1029300034004D323320257300556E6B6E6F776E09
:1029400020636F6D6D616E643A20220050726F6279
:10295000696E67206661696C65640A0050726F6217
:10296000696E67206661696C656400205A3A2000D0
:1029700020593A200042656420583A2000534420F0
:1029800063617264206F6B0A006F70656E526F6FC7
:1029900074206661696C65640A00766F6C756D659C
:1029A0002E696E6974206661696C65640A0053441F
:1029B00020696E6974206661696C0A00486F6D65F4
:1029C0002025732573257320666972737400206651
:1029D000697273740A005A0059005800486F6D6597
:1029E000200057726974696E6720746F2066696C85
:1029F000653A20006F70656E206661696C65642CB5
:102A00002046696C653A20006F70656E20666169CA
:102A10006C65642C2046696C653A200046696C65DB
:102A20002073656C65637465640A002053697A6578
:102A30003A200046696C65206F70656E65643A20C7
:102A4000002066696C653A2000646F696E670066F5
:102A500072657368004E6F772000454E44205355D1
:102A600042524F5554494E450A002220706F730060
:102A70002220706172656E743A2200535542524FA3
:102A80005554494E452043414C4C20746172676552
:102A9000743A22004B494C4C45442E200074727904
:102AA000696E6720746F2063616C6C207375622D92
:102AB00067636F64652066696C6573207769746805
:102AC00020746F6F206D616E79206C6576656C7314
:102AD0002E204D4158206C6576656C2069733A0054
:102AE0004572726F723A006F70656E206661696C34
:102AF00065642C2046696C653A200043616E6E6FF8
:102B000074206F70656E2073756264697220006551
:102B100063686F3A0000060900FE07019203212056
:102B20007FFF07FF07FF0000000600000107070600
:102B3000020080808080800080030202060105A0E0
:102B4000A00507070600005050F850F85050050740
:102B5000070600002078A07028F02005070706006F
:102B600000C0C810204098180507070600006090B4
:102B7000A040A89068020303060104C04080030738
:102B800007060100204080808040200307070601DF
:102B9000008040202020408005050506000120A877
:102BA00070A8200505050600012020F8202002035A
:102BB000030602FFC04080050101060003F802027F
:102BC00002060200C0C005050506000108102040ED
:102BD00080050707060000708888888888700307CA
:102BE0000706010040C040404040E00507070600DE
:102BF00000708808708080F8050707060000F8104C
:102C000020100808F005070706000010305090F863
:102C10001010050707060000F880F0080888700506
:102C20000707060000708080F08888700507070697
:102C30000000F8081020202020050707060000707B
:102C40008888708888700507070600007088887873
:102C5000080870020505060200C0C000C0C00206D8
:102C6000060602FFC0C000C040800407070600003F
:102C700010204080402010050303060002F800F8F1
:102C80000407070601008040201020408005070748
:102C900006000070880810200020050707060000C5
:102CA00070880868A8A87005070706000070888863
:102CB000F8888888050707060000F08888F088886B
:102CC000F00507070600007088808080887005077F
:102CD00007060000F08888888888F0050707060046
:102CE00000F88080F08080F8050707060000F88073
:102CF00080F0808080050707060000708880B88813
:102D00008870050707060000888888F88888880189
:102D10000707060200808080808080800507070604
:102D2000000038101010109060050707060000889A
:102D300090A0C0A0908805070706000080808080D2
:102D40008080F805070706000088D8A8888888884A
:102D50000507070600008888C8A89888880507071F
:102D600006000070888888888870050707060000BC
:102D7000F08888F08080800507070600007088884A
:102D800088A89068050707060000F08888F0A090E2
:102D900088050707060000788080700808F005079E
:102DA00007060000F8202020202020050707060045
:102DB000008888888888887005070706000088884A
:102DC000888888502005070706000088888888883A
:102DD000A8500507070600008888502050888805FD
:102DE000070706000088888850202020050707066E
:102DF0000000F80810204080F8030707060100E0F3
:102E00008080808080E0050505060001804020105C
:102E100008030707060100E02020202020E005032A
:102E200003060004205088050101060000F8020294
:102E30000206020580400505050600007008788836
:102E4000780507070600008080B0C88888F005056F
:102E500005060000708080887005070706000008DE
:102E60000868988888780505050600007088F8804D
:102E7000700507070600003048E040404040050666
:102E8000060600FF708888780870050707060000AE
:102E90008080B0C88888880107070602008000800B
:102EA000808080800308080601FF20002020202069
:102EB000A040040707060000808090A0C0A09003F7
:102EC0000707060100C04040404040E005050506F8
:102ED0000000D0A8A8A8A8050505060000B0C8886D
:102EE0008888050505060000708888887005060634
:102EF0000600FFF08888F080800506060600FF784F
:102F00008888780808050505060000B0C88080801C
:102F100005050506000070807008F004070706002C
:102F2000004040E04040403005050506000088882C
:102F300088986805050506000088888850200505E2
:102F4000050600008888A8A8500505050600008829
:102F5000502050880506060600FF8888887808708B
:102F6000050505060000F8102040F80307070601D4
:102F7000002040408040402001070706020080807A
:102F80008080808080030707060100804040204049
:102F90004080050202060002689000000006000062
:102FA00000060900FE000000000001090008FE0004
:102FB0000005080806000040F0C8888898781005C9
:102FC0000808060000C0F88888888888F805050584
:102FD0000600012030F830200508080600002070A7
:102FE000F820202020E00509090600FF2070A8A88D
:102FF000B8888870200509090600FFE080C0B0A8E5
:10300000283028280509090600FFF8A8888888883C
:1030100088A8F8050A0A0600FE205050505088A8DB
:10302000A8887003030306000340A040D4E7FFE52F
:1030300011241FBECFEFD0E4DEBFCDBF12E0A0E071
:10304000B1E0E8E7F2EF01E00BBF02C007900D929C
:10305000AE37B107D9F723E1AEE7B2E001C01D9268
:10306000A03EB207E1F718E1C7E1D8E104C021971B
:10307000FE010E94A0F8C631D107C9F70E94D4E82A
:103080000C942FF90C9400006091170170911801B5
:10309000072E000C880B990B0E940EF22AE037EDE8
:1030A00043E25CE30E946DF2209112083091130814
:1030B00040911408509115080E946DF2609313011D
:1030C000709314018093150190931601089511983F
:1030D0000000000087FD52C0419800000000119AD6
:1030E0000000000011980000000086FD53C04198C8
:1030F00000000000119A000000001198000000007C
:1031000085FD46C0419800000000119A00000000B3
:1031100011980000000084FD39C0419800000000B3
:10312000119A0000000011980000000083FD2CC0DF
:10313000419800000000119A000000001198000062
:10314000000082FD1FC0419800000000119A00009D
:10315000000011980000000081FD12C0419800009D
:103160000000119A00000000119800000000419832
:1031700000000000119A000000000895419AADCFB0
:10318000419AEDCF419AE0CF419AD3CF419AC6CF31
:10319000419AB9CF419AACCF90916F00292F2270FC
:1031A00091FF05C090916F009D7F90936F0034E078
:1031B000839FC0011124FC01E151F84F40815181EE
:1031C000628173818957974FFC01408351836283E9
:1031D000738381E08093EE07222329F080916F00B2
:1031E000826080936F000895BC0120918508309122
:1031F000860840918508509186082417350731F4D8
:1032000081E02617370709F080E008959A01F1CF91
:10321000CF92DF92EF92FF928091ED0A882309F41A
:1032200057C0C090E90AD090EA0AE090EB0AF0900B
:10323000EC0A20E030E0A901C701B6010E9407F2C4
:10324000882309F445C020E030E040E05FE3C70197
:10325000B6010E946DF29B01AC010E946DF22BED54
:103260003FE049E450E40E946DF29B01AC0160E054
:1032700070E080E89FE30E94E2F66B017C01C0925F
:103280001208D0921308E0921408F0921508609189
:10329000170170911801072E000C880B990B0E94E2
:1032A0000EF22AE037ED43E25CE30E946DF2A701E3
:1032B00096010E946DF26093130170931401809344
:1032C000150190931601FF90EF90DF90CF90089535
:1032D000C12CD12C80E8E82E8FE3F82ED0CF8F922E
:1032E0009F92AF92BF92CF92DF92EF92FF92CF93D5
:1032F000DF93EC018090040890900508A0900608E8
:10330000B090070820E030E0A901C501B4010E9497
:1033100007F2882309F454C0C880D980EA80FB8072
:10332000A7019601C501B4010E9407F218160CF01E
:103330004CC02091B0023091B1024091B202509144
:10334000B302C701B6010E9407F2882331F1C0928F
:10335000B002D092B102E092B202F092B302209198
:10336000AC023091AD024091AE025091AF02688143
:1033700079818A819B810E946DF29B01AC0160E0A2
:1033800070E080E89FE30E945EF660930001709316
:1033900001018093020190930301609100017091FB
:1033A00001018091020190910301DF91CF91FF9083
:1033B000EF90DF90CF90BF90AF909F908F90089547
:1033C00060E070E080E89FE3F0CF60E070E0CB0168
:1033D000ECCFCF93DF938091150B811105C08091C5
:1033E000160B882309F459C08091340832994FC0D4
:1033F0008E7F809334088091340833994AC08D7F42
:103400008093340880913408349945C08B7F809331
:103410003408C0917808C0FF10C080913E0880FF3A
:103420000CC08091340880FF08C08091280B816017
:103430008093280B80E00E94CC18C1FF10C08091BF
:103440003E0881FF0CC08091340881FF08C0809144
:10345000280B82608093280B81E00E94CC18C2FF69
:103460001CC080913E0882FF18C08091160B8823F3
:10347000A1F08091340882FF10C08091280B8460F5
:103480008093280B82E0DF91CF910C94CC1881605F
:10349000B0CF8260B5CF8460BACFDF91CF9108956D
:1034A000CF92DF92EF92FF92CF93C82F0E9486C5F2
:1034B0006B017C0124EA30E74DE75FE36091380956
:1034C0007091390980913A0990913B090E9407F265
:1034D00087FD18C08AEF90E0A0E0B0E08C0D9D1D44
:1034E000AE1DBF1D8093F30A9093F40AA093F50AD2
:1034F000B093F60AC0934D01CF91FF90EF90DF900B
:10350000CF90089580E090E0DC01E8CF609134092D
:1035100070913509809136099091370941E00C94FA
:1035200093960C9492C59F92AF92BF92CF92DF92E6
:10353000EF92FF920F931F93CF93DF935B01E9010B
:103540004A3009F4C4C0453109F067C0DB01129666
:10355000ED91FC91F280C681D781139A88E290E0C8
:103560000197F1F7EF2CE29420EFE22230E1932E65
:103570009F0C48E2C42ED12C88EF0E946718C60128
:103580000197F1F7BFE1BF1508F488C08F2D807750
:1035900080680E9467188E2D0E946718C6010197E7
:1035A000F1F780E80E94671880E00E946718C60162
:1035B0000197F1F78AEF0E946718C6010197F1F7AA
:1035C0008E01005F1F4F8881807F0E94671889915C
:1035D0008295807F0E946718C017D107A1F7C601A6
:1035E0000197F1F7F394E0E1EE0EF910C5CF1398CF
:1035F000D50112960D911C91C8010E9490C78111AE
:10360000FEC1DF91CF911F910F91FF90EF90DF905E
:10361000CF90BF90AF909F900895FB0102811381DE
:10362000ECEEE40FE43308F050C0F0E0E65EF44E58
:103630000C94A0F8A71CFC1A651BEF1C651B651BEE
:10364000651B651B651B651B651B651B651B651B7A
:10365000651B651B651B651B651B651B651B651B6A
:10366000651B651B651B651B651B651B651B651B5A
:10367000E91C651B651B651B651B651B651B651BC5
:10368000651BBA1C651B651B651B651B651B651BE4
:10369000651B651B651B651B0C1D611B80EE8F0D7B
:1036A0008068807F0E9467188F2D8295807F0E949E
:1036B0006718C6010197F1F780E80E94671880E853
:1036C00074CFD80111968C91888381E09ACF0B9AA0
:1036D0001398399A4198099A119A139A88E290E0BE
:1036E0000197F1F788E790E0CEE9DFE0FE0131973E
:1036F000F1F70197D9F788EF0E94671808E210E008
:10370000C8010197F1F780E20E94671880E00E94EB
:103710006718C8010197F1F780E00E94671880E8F8
:103720000E946718C8010197F1F780E00E946718AE
:1037300080E10E946718C8010197F1F7CE01019757
:10374000F1F7CE010197F1F7CE010197F1F7CE0124
:103750000197F1F7CE010197F1F7CE010197F1F74B
:10376000CE010197F1F7CE010197F1F7CE01019754
:10377000F1F7CE010197F1F7CE010197F1F7CE01F4
:103780000197F1F7CE010197F1F7CE010197F1F71B
:103790002197F1F780E20E94671880E40E94671881
:1037A000C8010197F1F780E20E94671880E60E9445
:1037B0006718C8010197F1F700E010E0C8E2D0E017
:1037C000812F807780680E946718802F0E94671879
:1037D000CE010197F1F780E80E94671880E00E940F
:1037E0006718CE010197F1F78AEF0E946718CE01A2
:1037F0000197F1F780E21198000000004198000065
:103800000000119A0000000011980000000041988B
:1038100000000000119A0000000011980000000054
:10382000419800000000119A00000000119800006B
:103830000000419800000000119A0000000011985B
:1038400000000000419800000000119A00000000F4
:10385000119800000000419800000000119A00003B
:103860000000119800000000419800000000119A2B
:1038700000000000119800000000419800000000C6
:10388000119A00000000119800000000419800000B
:103890000000119A000000001198000000004198FB
:1038A00000000000119A00000000119800000000C4
:1038B000419800000000119A0000000011980000DB
:1038C0000000419800000000119A000000001198CB
:1038D00000000000419800000000119A0000000064
:1038E000119800000000419800000000119A0000AB
:1038F0000000119800000000419800000000119A9B
:103900000000000011980000000041980000000035
:10391000119A00000000FE013197F1F7815009F083
:103920006ACF88EF0E946718CE010197F1F71F5FF9
:10393000005F103209F044CF80E00E94671880ECED
:103940000E9467182197F1F7139881E05ACED801A9
:1039500015964C91159750E0440F551F70E060E0AC
:1039600016968D919C910E94C7F8C8010E94A6C727
:1039700081E047CE89812B81D80112966C911297F4
:1039800013964C91213009F467C0233009F048C0E8
:1039900038EF380F582F91E0431708F490E041E0DA
:1039A000531708F040E031E0561708F430E0592F83
:1039B000542B352319F4942309F487CEFA8030E090
:1039C000F901E451FE4FD08028513E4FF901E080CB
:1039D00040C0B901C8010E947AC781E012CE1882A6
:1039E000D80112968C911297898315968C91159710
:1039F00081508A8313968C918B8381E002CEF801EB
:103A0000458150E0440F551F70E060E0868197814A
:103A10000E94C7F881E0F5CDF8018581888355CEF5
:103A2000481708F452CE861708F44FCEFA80E12CDE
:103A3000D12C243070F4C3CFBE01C8010E947AC7D4
:103A4000898198819D0D98838E0D8983FF0C09F4DF
:103A50003CCEF7FEF6CFF0CF58E0580F382F9BCF73
:103A6000DF92EF92FF920F931F93CF93DF93EC01BE
:103A7000D62E1CAD0BAD7C0184E0E80EF11CE98D67
:103A8000FA8DC7010995412F480F2D2D602FC701D1
:103A90000E9420CA9BAD890F8BAF81E090E0DF913F
:103AA000CF911F910F91FF90EF90DF9008951F939A
:103AB000CF93DF93182FEB01FE01849121968111A2
:103AC0000AC0C4EAD4E0FE0184912196882331F033
:103AD0000E94BC81F8CF0E94BC81EECFCFE9D4E038
:103AE000112311F0C5E9D4E0FE01849121968823C9
:103AF00019F00E94BC81F8CF8AE0DF91CF911F912D
:103B00000C94BC81CF93DF9380399240A1F0C0EE3A
:103B1000DAE2FE018491219681110AC0C7ECD0E05F
:103B2000FE0184912196882351F00E94BC81F8CF38
:103B30000E94BC81EECF80E0DF91CF91089581E0BB
:103B4000FBCF4F925F926F927F928F929F92AF9234
:103B5000BF92CF92DF92EF92FF92CF93DF93CDB7D8
:103B6000DEB76A970FB6F894DEBF0FBECDBF9A8F4F
:103B7000898F5B014A01DC01D7966D917D918D9112
:103B80009C91DA970E940CF26B017C01F501208177
:103B90003181428153810E946DF20E94CBF60E94D6
:103BA0005BF73B015C01D4012D913D914D915C91FE
:103BB000C701B6010E946DF20E94CBF60E945BF72E
:103BC0006D827E82AF82B8862D813E814F8158857D
:103BD000283731054105510540F428E730E040E041
:103BE00050E02D833E834F83588769837A838B838C
:103BF0009C8389819A81AB81BC8188379105A1051D
:103C0000B10540F428E730E040E050E029833A83F2
:103C10004B835C83E98DFA8DED5BFF4F8081918151
:103C2000A281B38189879A87AB87BC87BC01CD010C
:103C30000E940EF22B013C016D817E818F8198855F
:103C40000E940CF2698B7A8B8B8B9C8B20E030E08E
:103C5000A901C301B2010E9407F2882309F43BC104
:103C6000A7019601C701B6010E946DF24B015C01EC
:103C700029893A894B895C89CA01B9010E946DF290
:103C80009B01AC01C501B4010E945EF64B015C01D1
:103C9000A3019201C301B2010E945FF69B01AC0136
:103CA000C501B4010E94E2F60E94CBF60E945BF7C8
:103CB0006D877E878F87988B69857A858B859C85B4
:103CC00090958095709561957F4F8F4F9F4F0E9483
:103CD0000EF24B015C0169817A818B819C810E948B
:103CE0000CF269877A878B879C8720E030E0A901F6
:103CF000C501B4010E9407F2882309F4F0C02985A8
:103D00003A854B855C85CA01B9010E946DF26D8BC5
:103D10007E8B8F8B988FA7019601C701B6010E94F9
:103D20006DF29B01AC016D897E898F89988D0E940F
:103D30005EF66B017C01A5019401C501B4010E94EE
:103D40005FF69B01AC01C701B6010E94E2F60E943A
:103D50008AF7A98DBA8D95968D909D90AD90BC9067
:103D60009897750164012D853E854F855889C21A43
:103D7000D30AE40AF50A0E945BF7C61AD70AE80AD2
:103D8000F90AF7FE6EC020E030E0A901C301B201DC
:103D90000E9407F2882309F4A6C0C501B4010E945D
:103DA0000CF26B017C01A3019201C301B2010E94DC
:103DB0005FF69B01AC01C701B6010E946DF26B0179
:103DC0007C0129893A894B895C89CA01B9010E9421
:103DD0006DF29B01AC01C701B6010E945EF66B015A
:103DE0007C0129853A854B855C85CA01B9010E9411
:103DF0006DF29B01AC01C701B6010E945FF66B0139
:103E00007C0120E030E040E850E4C301B2010E94B0
:103E10006DF29B01AC01C701B6010E94E2F60E945F
:103E2000CBF66B017C0120E030E0A9010E94E2F7B3
:103E300018161CF0C12CD12C7601C701B6010E94C6
:103E40005BF76D877E878F87988B86169706A80607
:103E5000B90620F48D869E86AF86B88AC12CD12CF7
:103E600076018D859E85AF85B889E98DFA8D82A70B
:103E700093A7A4A7B5A7C80ED91EEA1EFB1EDF0193
:103E8000C6A6D7A6E0AAF1AA2D813E814F8158850A
:103E900023AF34AF45AF56AFDF9629813A814B81CE
:103EA0005C812D933D934D935C9313976A960FB667
:103EB000F894DEBF0FBECDBFDF91CF91FF90EF90A2
:103EC000DF90CF90BF90AF909F908F907F906F903A
:103ED0005F904F90089560E070E0CB01E5CE60E028
:103EE00070E0CB0134CF60E070E0CB0198CFCF938E
:103EF000DF9300D000D0CDB7DEB7882349F00E9411
:103F0000C3CD0F900F900F900F90DF91CF91089538
:103F100088EB91E09C838B8384E190E09A83898392
:103F2000BE016D5F7F4FCE0101960E94BAC0E9CFFE
:103F300080911E098230B1F090910610992359F0BA
:103F400080911710811104C08AE090E10C94BFBFEA
:103F500087E190E1FBCF813041F08DED91E16FEF92
:103F60000C9427D588EF91E1FACF8CEE91E1F7CF51
:103F7000282F1092010B8091AD0C9091AE0CA09166
:103F8000AF0CB091B00C81309048A105B10540F064
:103F90001092AD0C1092AE0C1092AF0C1092B00CAF
:103FA0008091FC0A882331F08091AD0C8093F00A57
:103FB0001092EF0A8091EE0A1816FCF4082E000CFD
:103FC000990B821B91092091F00A022E000C330BF1
:103FD0002817390794F097FF02C090E080E08093A3
:103FE000F00A092E000CAA0BBB0B8093AD0C90932A
:103FF000AE0CA093AF0CB093B00C8091F00A662386
:10400000A9F09091F10A891714F48093F10A209194
:10401000F10A022E000C330B2C5F3F4F482F082E65
:10402000000C550B241735071CF484508093F10ABB
:104030000895809106098630D8F496E0899FF001B2
:104040001124EE51F74F20915701309158013183DF
:1040500020834091AD0C5091AE0C6091AF0C7091EB
:10406000B00C42835383648375838F5F809306090A
:104070000895CF92DF92EF92FF920F931F93CF9309
:10408000DF93EC016A017B01809157019091580107
:104090008C179D0709F440C0409104085091050811
:1040A00060910608709107084093340950933509D0
:1040B000609336097093370923E3C833D207A9F513
:1040C00085539D4271F40E9486C56E517B4F8F4F80
:1040D0009F4F6093DE087093DF088093E008909311
:1040E000E108D0935801C0935701C092AD0CD09213
:1040F000AE0CE092AF0CF092B00CC553DD4221F44F
:104100001092FB0A1092060982E08093670181E019
:104110008093EF0A1092020BDF91CF911F910F91C4
:10412000FF90EF90DF90CF9008952DE2C533D20736
:10413000C1F68853934319F0C5E3DDE2D2CF0E9464
:1041400086C50091DE081091DF082091E0083091CB
:10415000E108601B710B820B930B97FFEDCF8091F1
:10416000980F9091990F891B8F7021F48091061000
:10417000882311F3C4EFD7E2B4CF21E02093FB0AE8
:10418000609338097093390980933A0990933B09F9
:1041900040E050E0BA0180913C0990913D090C94B7
:1041A000392060E070E080E291E40C94BD2060E092
:1041B00070E080E89FE30C94BD206DEC7CEC8CEC0F
:1041C0009DE30C94BD2040E050E0BA0185E39DE200
:1041D0000C943920E0910609EE2389F0E150E09338
:1041E000060986E0E89FF0011124EE51F74F428165
:1041F000538164817581808191810C9439200C9464
:10420000E320CF92DF92EF92FF920F931F93CF9311
:10421000DF93182F70933D0960933C0961E081E0C2
:104220000E94B81FC091F10A85E0D82EDC0E81E013
:1042300004E00C1B93E0F92EFC1A92E0E92EEC1A34
:10424000C82ECC1ADC2FD195113009F45BC058F17F
:10425000123009F482C0C111A9C08823D9F080911D
:10426000F00A1816BCF04091AD0C5091AE0C609164
:10427000AF0C7091B00C4F5F5F4F6F4F7F4F40930B
:10428000AD0C5093AE0C6093AF0C7093B00C8F5F7D
:104290008093F00A80916701882361F121E041E079
:1042A0006FEB75E156C0C11181C08823D9F08091B0
:1042B000F00A1816BCF04091AD0C5091AE0C609114
:1042C000AF0C7091B00C4F5F5F4F6F4F7F4F4093BB
:1042D000AD0C5093AE0C6093AF0C7093B00C8F5F2D
:1042E0008093F00A8091670121E041E066ED75E17D
:1042F00081112FC080E0CF5FDC12A6CF85E08093D4
:10430000EE0A78C0C11152C08823D9F08091F00A1A
:104310001816BCF04091AD0C5091AE0C6091AF0CF2
:104320007091B00C4F5F5F4F6F4F7F4F4093AD0C5C
:104330005093AE0C6093AF0C7093B00C8F5F809372
:10434000F00A8091670121E041E06FEC75E188237C
:1043500089F28D2F0E9462DACDCFC11127C0882348
:10436000D9F08091F00A1816BCF04091AD0C509134
:10437000AE0C6091AF0C7091B00C4F5F5F4F6F4F00
:104380007F4F4093AD0C5093AE0C6093AF0C709385
:10439000B00C8F5F8093F00A8091670121E041E0CB
:1043A00068EC75E1882309F4A5CFD3CFC13059F566
:1043B0008091F00A813091F080916701882309F49F
:1043C00099CF81E09091F00A913009F080E024E0EB
:1043D00045EB55E16C2D0E94F3CD8CCF8091030B02
:1043E000882351F31092030B0E94EA208091EF0A78
:1043F000882311F3DF91CF911F910F91FF90EF90E0
:10440000DF90CF900895C23009F055C08091F00A36
:10441000823081F080916701882309F46BCF81E0BD
:104420009091F00A923009F080E023E04BEA55E1E8
:104430006E2DD1CF8091030B882361F31092030B73
:1044400081ED90E20E9440DC8091EF0A882311F315
:10445000D1CF8091F00A833081F080916701882369
:1044600009F448CF81E09091F00A933009F080E0A0
:1044700023E042EA55E16F2DAECF8091030B8823F4
:1044800061F31092030B87ED90E20E9440DC809173
:10449000EF0A882311F3AECF8091030B8823A1F09C
:1044A0001092030B8DED90E20E9440DC8091EF0AA8
:1044B000882351F09FCFC33061F2C43009F01ACF86
:1044C0008091F00A843041F380916701882309F4D8
:1044D00011CF81E09091F00A943009F080E023E060
:1044E00047E955E1602F77CFEF92FF920F931F932B
:1044F000CF93DF9361E081E00E94B81FC091F10A81
:1045000085E0F82EFC0ED3E0DC1B12E01C1B01E062
:104510000C1BEC2EE194C1112DC08091F00A882370
:10452000B1F080916701882359F081E09091F00A01
:10453000911180E024E044E254E16E2D0E94F3CD1D
:10454000CF5FFC12E8CF84E08093EE0A0CC080912C
:10455000030B882331F31092030B0E94EA20809111
:10456000EF0A8823F1F2DF91CF911F910F91FF9015
:10457000EF900895C13061F58091F00A813079F0B3
:10458000809167018823E1F281E09091F00A9130F7
:1045900009F080E020E248E154E1602FCFCF809124
:1045A000030B882369F31092030B40911E0850916E
:1045B0001F0860911A0870911B088091160890914D
:1045C00017080E94AED48091EF0A8823C9F2CBCF9E
:1045D000C23009F042C08091F00A823081F08091AF
:1045E0006701882309F4ACCF81E09091F00A923002
:1045F00009F080E020E248EF53E1612F9FCF8091E6
:10460000030B882361F31092030B40911E08509115
:104610001F086FEF7FEF80911608909117080E9496
:10462000AED48091EF0A8823D1F29DCF8091030B05
:104630008823D1F01092030B40911E0850911F085F
:1046400060911A0870911B0890E080E00E94AED43F
:104650008091EF0A882341F086CFC33009F070CFF4
:104660008091F00A833011F380916701882309F467
:1046700067CF81E09091F00A933009F080E020E26A
:1046800048E054E16D2F5ACFEF92FF920F931F93A2
:10469000CF93DF9361E081E00E94B81FC091F10ADF
:1046A00085E0F82EFC0ED3E0DC1B12E01C1B01E0C1
:1046B0000C1BEC2EE194C1112DC08091F00A8823CF
:1046C000B1F080916701882359F081E09091F00A60
:1046D000911180E024E048E554E16E2D0E94F3CD75
:1046E000CF5FFC12E8CF84E08093EE0A0CC080918B
:1046F000030B882331F31092030B0E94EA20809170
:10470000EF0A8823F1F2DF91CF911F910F91FF9073
:10471000EF900895C13061F58091F00A813079F011
:10472000809167018823E1F281E09091F00A913055
:1047300009F080E020E24CE454E1602FCFCF80917B
:10474000030B882369F31092030B409120085091CA
:10475000210860911C0870911D08809118089091A3
:1047600019080E94AED48091EF0A8823C9F2CBCFFA
:10477000C23009F042C08091F00A823081F080910D
:104780006701882309F4ACCF81E09091F00A923060
:1047900009F080E020E24CE254E1612F9FCF80914C
:1047A000030B882361F31092030B40912008509172
:1047B00021086FEF7FEF80911808909119080E94EF
:1047C000AED48091EF0A8823D1F29DCF8091030B64
:1047D0008823D1F01092030B4091200850912108BA
:1047E00060911C0870911D0890E080E00E94AED49A
:1047F0008091EF0A882341F086CFC33009F070CF53
:104800008091F00A833011F380916701882309F4C5
:1048100067CF81E09091F00A933009F080E020E2C8
:104820004CE354E16D2F5ACF2F923F924F925F92FB
:104830006F927F928F929F92AF92BF92CF92DF92B0
:10484000EF92FF920F931F93CF93DF9300D000D08E
:10485000CDB7DEB761E081E00E94B81F1091F10A88
:10486000612E85E0782E710E94E6892E912CA12C74
:10487000B12C05E0011B84E0F82EF11A83E0E82E4C
:10488000E11A82E0D82ED11A24EF222E3324339459
:10489000412C512C81E0C82EC11A11113EC08091CB
:1048A000F00A8823B9F080916701882361F0662DB2
:1048B000619581E09091F00A911180E024E042E45A
:1048C00052E10E94F3CD1F5F7112E7CF86E0809323
:1048D000EE0A0CC08091030B882329F31092030B7E
:1048E0000E94EA208091EF0A8823E9F20F900F904E
:1048F0000F900F90DF91CF911F910F91FF90EF904C
:10490000DF90CF90BF90AF909F908F907F906F90EF
:104910005F904F903F902F900895113041F5809116
:10492000F00A813079F080916701882361F281E09B
:104930009091F00A913009F080E020E247E352E1E3
:104940006C2DBFCF8091030B882369F31092030B6A
:1049500029823A824B825C82BE016F5F7F4F80EA80
:104960000E94A27C8091EF0A8823E9F2BFCF123027
:1049700009F080C08091F00A823081F08091670157
:10498000882309F4A0CF81E09091F00A923009F0D9
:1049900080E020E24BE152E16D2D93CF8091030B3B
:1049A000882361F31092030B89829A82AB82BC82C6
:1049B000BE016F5F7F4F88E70E94A27C8091EF0A63
:1049C0008823E1F293CF8091F00A833081F08091C7
:1049D0006701882309F477CF81E09091F00A933042
:1049E00009F080E020E24FE052E16E2D6ACF809125
:1049F000030B882361F31092030B0E94DB7C8091F0
:104A0000EF0A882321F372CF8091F00A843081F07D
:104A100080916701882309F456CF81E09091F00AD4
:104A2000943009F080E020E245E052E16F2D49CF5B
:104A30008091030B882361F31092030B0E94C07CCA
:104A40008091EF0A882321F351CF8091030B8823B3
:104A5000E9F01092030B89829A82AB82BC82BE017C
:104A60006F5F7F4F8CE30E94A27C8091EF0A8823C6
:104A700069F03CCF133009F4A6CF143029F2153079
:104A800009F021CF8091F00A8530F9F28091670119
:104A9000882309F418CF81E09091F00A953009F04D
:104AA00080E020E24AE252E1602F0BCF9CE0899F38
:104AB000802D112491E0980F9093AB0C2CE0280FDF
:104AC0002093AC0C40918F0F30E02E5F3F4F421788
:104AD000130609F0A4F42091910F921780F4662335
:104AE00041F08E5F0E946FC98091AC0C8E5F0E9476
:104AF0006FC98091AC0C1092920F8093930F089520
:104B0000CF93DF931F92CDB7DEB78091940F8111C1
:104B100005C081E08093940F0E94EBC760915D0F08
:104B200070915E0F19829E012F5F3F4F4FE08BE522
:104B30009FE00E94ADC70F90DF91CF9108950F9332
:104B40001F93CF93C62F8C01CC2349F0F80181919C
:104B50008F01882321F00E945CBFC150F5CFCF9117
:104B60001F910F9108959FEF980F993020F40E94A4
:104B700088D481E008950E945CBFFBCF9FEF980F1F
:104B8000993010F40C9488D40C945CBFCF93DF93CD
:104B9000EC01FE018491882321F00E94BE2521961C
:104BA000F8CFDF91CF910895CF93DF93EC018991F6
:104BB000882319F00E94BE25FACFDF91CF91089586
:104BC000AF92BF92CF92DF92EF92FF920F931F931B
:104BD000CF93DF935C017B010E9454DAC82FC70199
:104BE0000E94C6DB04E110E0081B1109DD24D39408
:104BF000C017110619F014F082E0D82E80915C0FD6
:104C000090E06D2D70E06F5F7F4F0E948CF8C62E94
:104C1000C6E0C60F80918F0FC81788F12091910FC1
:104C20004C2F4B50550B241715064CF11092920F38
:104C3000C093930FC5010E9461BFD1E0E114F1045C
:104C400099F08AE30E945CBF52E0D5121AC0CC0DE5
:104C500080918F0FC81740F02091910F4C2F4B502F
:104C6000550B241715067CF4DF91CF911F910F91FE
:104C7000FF90EF90DF90CF90BF90AF900895D0E07D
:104C8000DDCFDD2389F3802F880F800F880F80937D
:104C9000920FC093930F80E20E945CBFC701DF9127
:104CA000CF911F910F91FF90EF90DF90CF90BF9029
:104CB000AF900C94D4258091030B1092030B8823A2
:104CC00021F01092FB0A0C94EA206091AD0C7091D7
:104CD000AE0C8091AF0C9091B00C611571058105FF
:104CE000910561F10E940EF2209138093091390945
:104CF00040913A0950913B090E946DF22091EE0CCF
:104D00003091EF0C4091F00C5091F10C0E945FF645
:104D10006093EE0C7093EF0C8093F00C9093F10C79
:104D200083E00E94501A81E0809367011092AD0CDD
:104D30001092AE0C1092AF0C1092B00C80916701E3
:104D4000882349F08EEE9CE00E9445CBBC018EE8A2
:104D500095E10C94E02508953F924F925F926F92F7
:104D60007F928F929F92AF92BF92CF92DF92EF92FB
:104D7000FF920F931F93CF93DF93CDB7DEB72A97A0
:104D80000FB6F894DEBF0FBECDBF9A878987362E47
:104D90008091030B1092030B8823E1F01092FB0A21
:104DA0000E94EA202A960FB6F894DEBF0FBECDBF50
:104DB000DF91CF911F910F91FF90EF90DF90CF90F7
:104DC000BF90AF909F908F907F906F905F904F902B
:104DD0003F9008958091AD0C9091AE0CA091AF0CD6
:104DE000B091B00C8D839E83AF83B887892B8A2BBB
:104DF0008B2B09F454C094E0699F80011124F801C1
:104E0000EE51F34F40805180628073808091270182
:104E1000811184C020E030E04AE754E4C301B201CC
:104E20000E945EF64B015C0120E030E04AE754E46A
:104E3000C301B2010E945FF66B017C016D817E812E
:104E40008F8198850E940EF220913809309139099E
:104E500040913A0950913B090E946DF2A3019201E1
:104E60000E945FF62B013C018D819E81AF81B88548
:104E7000B7FF95C0A5019401C301B2010E9407F2DA
:104E800087FD85C0F801EE51F34F40825182628266
:104E90007382832D0E94501A81E0809367011092E3
:104EA000AD0C1092AE0C1092AF0C1092B00C809121
:104EB0006701882309F476CFA4E03A9EC00111244B
:104EC000FC01EE51F34F8E52934FDC012D913D9139
:104ED0004D915C9160817181828193810E945FF626
:104EE00069837A838B839C832DEC3CEC4CEC5DE3F3
:104EF000609138097091390980913A0990913B0984
:104F00000E94E2F787FD5CC0CE0101960E9445CB6E
:104F1000BC0189859A850E94E02544CFA1E06A17EB
:104F2000A1F0B2E06B1711F180902708909028084B
:104F3000A0902908B0902A08C0901B01D0901C01B5
:104F4000E0901D01F0901E0179CF80902B08909089
:104F50002C08A0902D08B0902E08C0901F01D09072
:104F60002001E0902101F090220168CF80902F086D
:104F700090903008A0903108B0903208C090230182
:104F8000D0902401E0902501F090260157CFF80140
:104F9000EE51F34F80829182A282B3827ACFA70131
:104FA0009601C301B2010E94E2F718160CF06ACF15
:104FB000F801EE51F34FC082D182E282F38269CFD1
:104FC000CE0101960E94ACC1A3CF62E087E895E1D3
:104FD0000C94AC2661E080E895E10C94AC2660E08E
:104FE00089E795E10C94AC268F929F92AF92BF9285
:104FF000CF92DF92EF92FF920F931F938091030B5A
:105000001092030B882371F01092FB0A1F910F91ED
:10501000FF90EF90DF90CF90BF90AF909F908F90D8
:105020000C94EA2081E08093FB0A8091AD0C909172
:10503000AE0CA091AF0CB091B00C0097A105B105DA
:1050400009F456C02AE0289F7001299FF00C112412
:105050001092AD0C1092AE0C1092AF0C1092B00CDE
:10506000B7010F2C000C880B990B0E940EF22091B7
:105070002C0930912D0940912E0950912F090E9441
:105080006DF22091DE0C3091DF0C4091E00C5091DC
:10509000E10C0E945FF64B015C0120E030E040EA49
:1050A00051EC0E94E2F787FD23C020E030E040EAA7
:1050B00051E4C501B4010E9407F21816CCF08091AA
:1050C000D10C82FF0AC08091100890911108E80E5F
:1050D000F91EF0921108E09210088092DE0C909276
:1050E000DF0CA092E00CB092E10C82E080936701AB
:1050F00080916701882309F48FC08EED9CE00E94A7
:10510000ACC1BC0185E993E10E94E025C090DE0CB2
:10511000D090DF0CE090E00CF090E10C8090200942
:1051200090902109A0902209B0902309A501940133
:10513000C701B6010E9407F28823E9F020E030E0C1
:10514000A901C701B6010E9407F2882309F46FC0C4
:10515000A5019401C701B6010E9407F287FD69C04D
:1051600081E080931F09C0922009D0922109E0922A
:105170002209F092230980918F0F813178F4809178
:10518000910F833058F080911F0964E0681B0DE790
:1051900013E12CE042E082E40E9484C880918F0FEA
:1051A000853160F48091910F843140F00AE713E17A
:1051B00021E043E064E18CE30E9484C880918F0F7A
:1051C0008F3350F58091910F8F3230F10AE413E163
:1051D00020E143E06FE285E00E9484C80AE113E128
:1051E00020E143E06FE28AE50E9484C880911F09B4
:1051F00060E3681B00E013E12DE042E08EE60E94D0
:1052000084C880911F0961E3681B06EE12E12DE05E
:1052100042E089E10E9484C81F910F91FF90EF90B6
:10522000DF90CF90BF90AF909F908F90089580E0D7
:1052300098CF8FEF96CFCF92DF92EF92FF920F939E
:10524000CF93DF93982F862F6A017901692F0E94EF
:10525000562590918F0F8091AC0C891708F445C0AA
:105260009091910F8091AB0C981708F43EC0C70144
:10527000002381F00E9454DAC82FD4E1D81BF60134
:105280008491882351F00E94B325D81BFFEFCF1AD9
:10529000DF0AF5CF0E94C6DBEFCF8AE30E945CBF36
:1052A000D15010F080E2FACF8091AC0C9C2F990F76
:1052B000990FC91BCC0FC058C093920F8093930FC6
:1052C000C701002349F0DF91CF910F91FF90EF903C
:1052D000DF90CF900C94C625DF91CF910F91FF9076
:1052E000EF90DF90CF900C94D425DF91CF910F9168
:1052F000FF90EF90DF90CF9008958F929F92AF92A2
:10530000BF92CF92DF92EF92FF920F931F93CF93B2
:10531000DF9361E081E00E94B81FC091F10A85E04F
:10532000A82EAC0E86E0F82EFC1AD1E085E0E82E1F
:10533000EC1A84E0D82EDC1A83E0C82ECC1A82E066
:10534000B82EBC1A9D2E9C1A8C2E8194C1112EC091
:105350008091F00A882389F080916701882309F4FD
:1053600043C081E09091F00A911180E024E043EF86
:1053700053E1682D0E94F3CD37C08091030B882341
:1053800059F31092030B0E94EA208091EF0A8823C0
:1053900019F3DF91CF911F910F91FF90EF90DF9064
:1053A000CF90BF90AF909F908F900895C130D1F56E
:1053B0008091F00A8130F9F0809167018823A1F093
:1053C00011E08091F00A813009F010E0809119011C
:1053D00090911A010E943ACC00E09C0147EE53E103
:1053E000692D812F0E941B29CF5FAC12AFCF87E0C0
:1053F0008093EE0ACECF8091030B8823E9F21092BE
:10540000030B10E000E027EE33E04AE050E069E1F2
:1054100071E08DEE93E10E9402C38091EF0A882330
:1054200059F2B7CFC23009F0F4C08091F00A82304F
:10543000B1F0809167018823B9F211E08091F00A00
:10544000823009F010E080914F0F9091500F0E9430
:105450003ACC00E09C0149ED53E16B2DC2CF809125
:10546000030B882331F31092030BD093010B10929E
:10547000FD0A1092FE0A1092FF0A1092000B01E939
:105480001AE124E031E050E040E06FE47FE080EE9C
:1054900093E10E9402C38091EF0A882351F279CFF1
:1054A0008091F00A8330B9F080916701882309F474
:1054B0009BCF11E08091F00A833009F010E08091D9
:1054C000C00C9091C10C0E943ACC00E09C0141EDCF
:1054D00053E16C2D86CF8091030B882329F3109222
:1054E000030BD093010B1092FD0A1092FE0A10924A
:1054F000FF0A1092000B02E51CE22EE630E050E0BD
:1055000040E060EC7CE085ED93E10E9402C3809175
:10551000EF0A882349F23DCF8091F00A8430B9F038
:1055200080916701882309F45FCF11E08091F00A30
:10553000843009F010E08091C20C9091C30C0E945D
:105540003ACC00E09C014DEB53E16D2D4ACF8091A8
:10555000030B882329F31092030BD093010B1092B5
:10556000FD0A1092FE0A1092FF0A1092000B10E042
:1055700000E02FEF30E050E040E062EC7CE087ECB0
:1055800093E10E9402C38091EF0A882349F201CF80
:105590008091F00A8530B9F080916701882309F481
:1055A00023CF11E08091F00A853009F010E080915E
:1055B0001701909118010E943ACC00E09C0143EB46
:1055C00053E16E2D0ECF8091030B882329F31092A7
:1055D000030B04E418E127EE33E04AE050E067E112
:1055E00071E088EB93E10E9402C38091EF0A882367
:1055F00099F2CFCE8091030B8823D9F01092030B40
:1056000084EF97E20E9440DC8091EF0A882389F0C2
:10561000C0CEC33009F444CFC43009F47DCFC530C7
:1056200009F4B6CFC63009F0DFCE8091F00A86309B
:1056300009F380916701882309F4D6CE81E0909127
:10564000F00A963009F080E023E044EA53E16F2D40
:1056500091CECF93C82F823079F024F4813049F075
:10566000CF910895833011F08430D1F785E19BE22A
:1056700005C0CF910C9496D480EA9FE20E9478BF37
:10568000C093050BEDCF8F929F92AF92BF92CF92B6
:10569000DF92EF92FF920F931F93CF93DF93B0E4CB
:1056A000A0E06A2F70E0AB014B0F511D5595479557
:1056B0004A1711F0B41319C0E1E9FEE06591749145
:1056C000072E000C880B990B0E940EF2DF91CF91F0
:1056D0001F910F91FF90EF90DF90CF90BF90AF9010
:1056E0009F908F900895B42FDECF9A0121503109F9
:1056F000220F331F220F331FF901ED56F24FE590B1
:10570000F490F901E956F24FC591D4918E159F0599
:1057100054F3A42FC817D9070CF4C3CFF901EB56E3
:10572000F24F05911491F901E756F24FC590D490CC
:10573000BC016E197F09072E000C880B990B0E9483
:105740000EF24B015C01B601601B710B072E000CC1
:10575000880B990B0E940EF29B01AC01C501B401AC
:105760000E946DF24B015C01BE016E197F09072E8C
:10577000000C880B990B0E940EF29B01AC01C50135
:10578000B4010E94E2F66B017C01B801110F880B95
:10579000990B0E940EF29B01AC01C701B6010E9459
:1057A0005FF694CF0F930FB70F9300916E000B7FAE
:1057B00000936E0078940F930BB70F930CB70F9272
:1057C0001F922F933F934F935F936F937F938F938A
:1057D0009F93AF93BF93EF93FF9311240E94E837F9
:1057E000FF91EF91BF91AF919F918F917F916F91B9
:1057F0005F914F913F912F911F900F900CBF0F9190
:105800000BBF0F910460F89400936E000F910FBFCF
:105810000F911895CF92DF92EF92FF92C0900808F7
:10582000D0900908E0900A08F0900B086091C00C35
:105830007091C10C66507109072E000C880B990BF2
:105840000E940EF2A70196010E94E2F718160CF5CD
:1058500020E030E040E050E4C701B6010E945FF66E
:105860000E945BF77093C0086093BF080E9486C5D2
:10587000605A75418F4F9F4F6093BB087093BC086F
:105880008093BD089093BE08FF90EF90DF90CF907B
:1058900008951092BB081092BC081092BD08109297
:1058A000BE08F2CF0C940A2C8F929F92AF92BF92B7
:1058B000CF92DF92EF92FF920F931F93CF93DF93DC
:1058C000B0E4A0E06A2F70E0AB014B0F511D55957D
:1058D0004795A41711F0B41319C0E1E9FEE06591F2
:1058E0007491072E000C880B990B0E940EF2DF9129
:1058F000CF911F910F91FF90EF90DF90CF90BF90CD
:10590000AF909F908F900895B42FDECF9A012150D1
:105910003109220F331F220F331FF901ED56F24FC9
:10592000E590F490F901E956F24FC591D4918E15A6
:105930009F0554F3A42FC817D9070CF4C3CFF9015E
:10594000EB56F24F05911491F901E756F24FC590CD
:10595000D490BC016E197F09072E000C880B990B9F
:105960000E940EF24B015C01B601601B710B072E09
:10597000000C880B990B0E940EF29B01AC01C50133
:10598000B4010E946DF24B015C01BE016E197F09EA
:10599000072E000C880B990B0E940EF29B01AC01A4
:1059A000C501B4010E94E2F66B017C01B801110F40
:1059B000880B990B0E940EF29B01AC01C701B60146
:1059C0000E945FF694CF8091CB089091CC080E9402
:1059D000432B6093510F7093520F8093530F90930A
:1059E000540F8091C9089091CA080E94542C60936A
:1059F00008087093090880930A0890930B08A895EB
:105A00001092FF0708950F931F9380911E09813014
:105A100019F50E9486C50091970810919808209169
:105A2000990830919A08601B710B820B930B28EE3A
:105A300033E040E050E00E94FBF5609193087091E4
:105A400094088091950890919608620F731F841FA7
:105A5000951F1F910F91089560919B0870919C086C
:105A600080919D0890919E08D6CF3F924F925F9271
:105A70006F927F928F929F92AF92BF92CF92DF925E
:105A8000EF92FF920F931F93CF93DF93CDB7DEB7C3
:105A90002A970FB6F894DEBF0FBECDBF1092010B50
:105AA0008091030B1092030B882309F10E9480253B
:105AB00040E050E0BA0188E393E30E9439202A963F
:105AC0000FB6F894DEBF0FBECDBFDF91CF911F910F
:105AD0000F91FF90EF90DF90CF90BF90AF909F908D
